:0300000002163DA8
:0C163D00787FE4F6D8FD7581EB0216847E
:100A8F00484C5400444F0049004C4F4F50002E002B
:100A9F00505243004352004B4559005245540044B5
:100AAF0055500044524F500053574150005250532D
:100ABF00480052504F50005244524F50005246453A
:100ACF00544348002B002D002A002F00250026003C
:100ADF007C005E003D3D003C3E003E003E3D003C44
:100AEF00003C3D003D002B2B002D2D007E004A4D7C
:100AFF0050004A5352004946540042524B00434E55
:100B0F0054004100420043004400450046004700A6
:100B1F0048004D52004D5700535200535700543068
:100B2F0000543100543200543300653A646F0A0D9B
:100B3F0000353120737461636B2D766D2025730D35
:100B4F000A0076302E33423100434025643A0025A7
:100B5F00642C000A0D523A000A0D644025643A00D5
:100B6F000A0D724025643A000A0D732F672F722FFA
:100B7F007A2F740A0D00653A6C780A0D000A0D3C45
:100B8F0025644025643E002564002563000A0D009E
:100B9F00653A25644025640A0D000A0D4F4B0A0D76
:100BAF00002000653A6172670A0D00653A68657842
:100BBF000A0D00653A6973610A0D00FF0A8F00FF85
:100BCF000A9301FF0A9602FF0A9803FF0A9D04FF8A
:100BDF000A9F05FF0AA306FF0AA608FF0AAA15FF28
:100BEF000AAE64FF0AB265FF0AB766FF0ABC67FF69
:100BFF000AC168FF0AC669FF0ACC6AFF0AD328FF39
:100C0F000AD529FF0AD72AFF0AD92BFF0ADB2CFFA7
:100C1F000ADD2DFF0ADF2EFF0AE12FFF0AE330FF67
:100C2F000AE631FF0AE932FF0AEB33FF0AEE34FF1F
:100C3F000AF035FF0AF321FF0AF53CFF0AF83DFFE2
:100C4F000AFB3EFF0AFD0AFF0B0114FF0B051EFFF7
:100C5F000B0920FF0B0D1FFF0B1150FF0B1351FF43
:100C6F000B1552FF0B1753FF0B1954FF0B1B55FF9F
:100C7F000B1D56FF0B1F57FF0B216EFF0B246FFF32
:100C8F000B2770FF0B2A71FF0B2D72FF0B3073FFB9
:070C9F000B3374FF0B3675E7
:100FD400020B0000020D0000020F000002110000CD
:100FE400010A0001E90001E8002020680000000077
:100FF40000000000000000000000000000000000ED
:101004000000000000000000000000002020480054
:1010140000000000000000000000000000000000CC
:10102400000000000000000000000000000000615B
:1010340000000000000000000000000000000000AC
:10104400000000000000000000000000000000009C
:10105400000000000000000000000000000000008C
:10106400000000000000000000000000000000007C
:10107400000000000000000000000000000000006C
:10108400000000000000000000000000000000005C
:10109400000000000000000000000000000000004C
:1010A400000000000000000000000000000000003C
:1010B400000000000000000000000000000000002C
:1010C400000000000000000000000000000000001C
:1010D400000000000000000000000000000000000C
:1010E40000000000000000000000000000000000FC
:1010F40000000000000000000000000000000000EC
:1011040000000000000000000000000000000000DB
:1011140000000000000000000000000000000000CB
:1011240000000000000000000000000000000000BB
:03113400000000B8
:1012910078E8E625E02443F8E62401F53218E4363F
:1012A100F53178E8E625E02441F9C3E5329719E7FD
:1012B1006480F8E5316480982278EAE6FE08E62445
:1012C10000F58274003EF583E022D3EF9532E531DB
:1012D1006480F8EE6480987E002274002530F582E7
:1012E1007400352FF583E022AB27AA28A9292225EE
:1012F100E02446F8E6FE08E6FF227532FF75330B5F
:101301007534B07B00227BFF7A0B795EE53025E0F6
:1013110022121A3D8E318F32E53222121AAD78EA4D
:10132100E6FE08E622853982758300121151FF22FB
:10133100121A3DE5302FF582E52F3EF58322C39445
:1013410010E52F648094802274012530F5827400A9
:10135100352FF5832274022530F5827400352FF57F
:10136100832278E9E625E024662278EAA60608A623
:101371000722AB33AA34A93522F8A60608A607220C
:07138100F8A60608A60722EA
:1019DA0053877F759850538EBF538EFE53890F439A
:0D19EA008920758BFD758DFDC2ABD28E225C
:03000B00021920B7
:10192000C0E0C0D0D3E50C9400E50B94004008E57E
:101930000C150C7002150BD3E50E9400E50D940008
:101940004008E50E150E7002150DD3E5109400E564
:101950000F94004008E51015107002150FD3E51222
:101960009400E51194004008E5121512700215115B
:05197000D0D0D0E032F0
:101A2300538E7F5389F0758A66758CFCC28DD28C78
:031A3300D2A92213
:061800008B338A348935A8
:10180600AB36AA37A938121A0EC006C007121373D0
:10181600121A0ED005D004EF6D7002EE6C60037FD5
:101826000122E4F539121373121A0EC3E5399FE447
:101836009E5026AB36AA37A938121326121A7FC035
:1018460007121373121326121A7FAE07D007EE6F14
:0B18560060037F0122053980CC7F0079
:011861002264
:0617AC008B2F8A30893109
:1017B200E4F532E53225E025E024CAF582E4340B73
:1017C200F5831211C68B368A378938AB2FAA30A916
:1017D20031121800EF7013E53225E025E024CDF533
:1017E20082E4340BF583E493FF220532E532C3949D
:0517F2003740C07F7FBD
:0117F70022CF
:10174900E4FDEF2401FFE43EFEC3EE648094815082
:101759004474002FF58274003EF583E0FC64456013
:101769000DEC640A6008EC64146003BC1E09740281
:101779002FFFE43EFE8017BC01030D8011BC03045A
:10178900ED700122BC0307EDD3940040011D0FBF8A
:1017990000010E80B47BFF7A0B79391204EC7EFFCD
:0217A9007FFFC0
:0117AB00221B
:071A3600121A3D8E318F32C0
:0C1A3D0078E916E625E024681212F42275
:0C1ABB0078E816E625E024481212F42218
:0E1A9F0078E9E625E0246812137A78E9062239
:0E1AAD0078E8E625E0244812137A78E806224D
:101A5C007537FF75380B7539517BFF7A0B7940025E
:021A6C0004EC88
:10138800121A5C7BFF7A0B795878EA12144CE4F550
:101398002FF5307BFF7A0B795E74002530F5827467
:1013A80000352FF583E0753700F5381204EC053069
:1013B800E5307002052FC3E52F6480948140D47B0B
:1013C800FF7A0B79621204ECE4F52FF5301213075B
:1013D80024D812142B7002052FC39408121342400C
:1013E800EC7A0B796778E912143B12130724681218
:1013F800142B7002052F12133F40EF7A0B796F7888
:10140800E812143B1213072448F812144C0530E56F
:10141800307002052F12133F40EA7BFF7A0B797771
:031428000204ECCF
:10142B00F8E6F53708E6F5381204EC0530E530221E
:10143B007BFFE6753700F5381204ECE4F52FF53039
:0C144B0022E6F53708E6F5381204EC2222
:10197500E478EAF608F678E9F618F6EF600E7C01E9
:101985007D00900000E4F0A3DDFCDCFAE4FD7C10B2
:1019950078D8E4F608DCFCE4FD7C207868E4F608F9
:0D19A500DCFCE4FD7C207848E4F608DCFC66
:0119B2002212
:1015A700E4F52FF5301212DBB44502C1021212DB4B
:1015B700640A600E1212DB641E60071212DB6414E9
:1015C7007044121349E0F47032121356E025E024F8
:1015D70069F8E624FFF53218E634FFF531C3648075
:1015E700948050097BFF7A0B79850204EC1213561D
:1015F700E532F0E531FF121349EFF074022530F5BB
:1016070030E4352FF52F0530E5307002052FC3E59F
:101617002F64809481408EE4F52FF530E53025E086
:101627002468F8E4F608F60530E5307002052F6403
:0516370010452F70E7D3
:01163C00228B
:10000E00E4F52FF53078EAF608F6E599641B7002F0
:10001E0081891212BAF533E50AB401177BFF7A0B08
:10002E00798C75370085333818E6F53908E6F53AD8
:10003E001204ECE5331211D204890003D7010458DF
:10004E0002040403034004034F05035C0603670721
:10005E00038F0801680A016A14017915018B1E04C9
:10006E000E1F04402001C32801CF2901DC2A01F80C
:10007E002B01E82C02042D02112E021D2F02293015
:10008E000240310257320267330278340289350258
:10009E00A63C02993D02B23E02BD45011650011624
:1000AE0051011652011653011654011655011656DA
:1000BE00011657011E5A011E5B011E5C011E5D01D9
:1000CE001E5E011E5F011E60011E61030A6402DBDB
:1000DE006502E066031F67032768032C6903316A14
:1000EE0003996E03A26F03B37003C17101507201C5
:1000FE005673015C74016275012C76013577013EF1
:10010E007801477900000467E53325E0243861382B
:10011E00121A3DE53325E0242412137A817F121A38
:10012E003D8E0B8F0C817F121A3D8E0D8F0E817FAF
:10013E00121A3D8E0F8F10817F121A3D8E118F1263
:10014E00817FAF0CAE0B413EAF0EAE0D413EAF10F8
:10015E00AE0F413EAF12AE11413E802A78EBE6243F
:10016E0003FF18E436FE121AAD801B121ABB78EA92
:10017E00A60608A607E61618700116817F121A3D0C
:10018E00EF4E7002817F12131F2401F58274003E20
:10019E00F583E0FE18E6FC08E62402F58274003CC6
:1001AE00F583E07C002400FFEC3ECF24FFF6EF3415
:1001BE00FF18F6817F121A36E5322FFFE5313E41E8
:1001CE00A3121A36C3EF9532FFEE953141A3121AE0
:1001DE0036AC31AD3212117E413E121A36AC31AD13
:1001EE0032121190AE04AF058046121A36AC31AD04
:1001FE00321211908162121A36E5315EFEE5325FDF
:10020E00FF8162121A36E5314EFEE5324F613D1224
:10021E001A36E5316EFEE5326F613D121A36EFB5D4
:10022E00320AEEB531067E007F0180047E007F002B
:10023E008162121A36EF65327003EE65317E006010
:10024E00047F0180027F008162121A361212CB40A7
:10025E00047F0180027F008162121A36C31212CC13
:10026E0040047F0180027F008162121A36C312128F
:10027E00CC50047F0180027F008162121A36121266
:10028E00CB50047F0180027F00816212131224FF83
:10029E00FFE53134FFFE81621213122401FFE435B3
:1002AE0031FE8162121312F4FFE531F4FE816278A1
:1002BE00EB06E6187001061212BAF50806E618707B
:1002CE0001061212BAF509AF09AE08816278E91675
:1002DE00817F121363F8E6F53108E6F53278E9E628
:1002EE0025E024641212F412136312138178E9E6E6
:1002FE0025E02464F8A63108A632817F121363121A
:10030E0012F478E9E625E0246812138178E9068173
:10031E007F121A3D121AAD817F121ABB816278E8E4
:10032E0016817F78E8E625E02446F8E6FE08E6FF2B
:10033E008162121A3D8E378F387BFF7A0B79968049
:10034E0013121A3D8F377BFF7A0B799980067BFF4C
:10035E007A0B799C1204EC817F78EB06E61870011B
:10036E00061212BA7002817F7BFF7A0B79991812EE
:10037E0012BCF5371204EC78EB06E61870E3068033
:10038E00E0121A6EEF3395E0FE8162121331E0FF38
:10039E007E008162121A3D7531008F32AD3212131A
:1003AE0031EDF0817F121A3DEF2480FF120E3D7E5B
:1003BE00008162121A3D7531008F32121A3DEF2400
:1003CE0080FFAD32120CA6817F121A3D121AAD12A9
:1003DE001A3D12131CFF12131CFF121749121AADED
:1003EE0078E8E625E02442F8E6F53108E6F5321223
:1003FE0012A3407D814712129178E85033E6800FA8
:10040E00121A3DEF4E606A12129178E8E6501925E5
:10041E00E02442F8A63108A63278E8E625E0244426
:10042E001212F412136B80491212F012136B78E849
:10043E008012121A3DEF4E603878E8E61212F01272
:10044E00136B78E874FC26F6802778E8E625E0241E
:10045E00421212F4121A9F80187BFF7A0B799F7545
:10046E00370085333878EAE6F53908E6F53A0204BE
:0B047E00EC78EB06E618700106011890
:010489002250
:1007E60078EAE6FC08E62400F58274003CF583EF1F
:0807F600F006E618700106226E
:1019F700AB07AA067F451207E68A088B09AF0812CC
:071A070007E6AF090207E644
:10080000E4F5231219DAD299121A2375FFDE75FF67
:10081000ADD2AF121A5C80387B007A0079887D50A7
:100820007C001215057889E6703B18E6248E601C62
:1008300014602414602624FA6016241370271215FD
:10084000A712000E7BFF7A0B79A901C3E4FF800297
:100850007F0112197580C112138880BCC374019581
:100860000AF50A80B3752601E526B4010F1212FBC2
:100870007A007988120A85E4F526800A1212FB7A3A
:10088000007900120A85E52945284527608A121259
:10089000E91217AC8F25E525640A600CE525641480
:1008A0006006E525641E70621212FB7A0079001260
:1008B00016C98B2A8A2B892CE94A4B700B7BFF7A4D
:1008C0000B79B21204EC0118AB2AAA2BA92C120A3C
:1008D00075BF4C17AF22121A905010AF251207E6C1
:1008E0007FFF1207E6E52224D02186AB2AAA2BA996
:1008F0002C1217AC8F22E525B41E0FE52264206070
:1009000005E522B41F04AF222187E5256421703B51
:1009100012131F24FFF58274FF3EF583E0F52224B5
:10092000B024F8500824E624FC5008801EE5222458
:100930000A8004E5222404FF78EAE6FC08E624FFA6
:10094000F58274FF3CF583EFF00168E525647F6074
:1009500004AF2580321212E91211386427702D7FFE
:10096000071207E6E4F522852282758300A312129E
:10097000E9121151FF6427600C1207E60522E522F7
:10098000C3940840E2E4FF1207E601681212E9127C
:100990000A75EF644C7030AF22121A90502912126F
:1009A000E9900002121151B43A1D90000312115146
:1009B000701578EBE62401FF18E436FEE52225E009
:1009C000240812138101681212E912113864307080
:1009D00071900001121151FF121A7FEF645870627A
:1009E000F52DF52E7522021212E9121A0EC3E52218
:1009F0009FE49E506C1212E9852282121329121A6A
:100A00007F8F24E52424D024F6500824F924FA50BA
:100A100006800C74D0800274C92524F52480097BDB
:100A2000FF7A0B79BA1204ECE52EC4F8540FC868AB
:100A3000FFE52DC454F048F52DEF4524F52E052291
:100A400080A51212E91214578E2D8F2EE52E452DFA
:100A5000700FE52E452D70121212E9121138B430C4
:100A600009AF2EAE2D1219F701687BFF7A0B79C200
:050A70001204EC016816
:100A7500900001121151F522121138FF121A7F222E
:0A0A85001216C98B278A288929223E
:100CA600EFC394405009EF75F003A4900CBD737523
:100CB600F003A4900D7D738D80228D81228D82227A
:100CC6008D83228D84228D85228D86228D87228D8D
:100CD60088228D89228D8A228D8B228D8C228D8D64
:100CE600228D8E228D8F228D90228D91228D9222A1
:100CF6008D93228D94228D95228D96228D97228D0D
:100D060098228D99228D9A228D9B228D9C228D9DD3
:100D1600228D9E228D9F228DA0228DA1228DA22220
:100D26008DA3228DA4228DA5228DA6228DA7228D8C
:100D3600A8228DA9228DAA228DAB228DAC228DAD43
:100D4600228DAE228DAF228DB0228DB1228DB222A0
:100D56008DB3228DB4228DB5228DB6228DB7228D0C
:100D6600B8228DB9228DBA228DBB228DBC228DBDB3
:100D7600228DBE228DBF228DC0228DC1228DC22220
:030D86008DC322F8
:100D89008DC4228DC5228DC6228DC7228DC8228D84
:100D9900C9228DCA228DCB228DCC228DCD228DCE1A
:100DA900228DCF228DD0228DD1228DD2228DD32298
:100DB9008DD4228DD5228DD6228DD7228DD8228D04
:100DC900D9228DDA228DDB228DDC228DDD228DDE8A
:100DD900228DDF228DE0228DE1228DE2228DE32218
:100DE9008DE4228DE5228DE6228DE7228DE8228D84
:100DF900E9228DEA228DEB228DEC228DED228DEEFA
:100E0900228DEF228DF0228DF1228DF2228DF32297
:100E19008DF4228DF5228DF6228DF7228DF8228D03
:100E2900F9228DFA228DFB228DFC228DFD228DFE69
:040E3900228DFF22E5
:100E3D00EFC394405009EF75F003A4900E547375F1
:100E4D00F003A4900F1473AF8022AF8122AF8222E2
:100E5D00AF8322AF8422AF8522AF8622AF8722AF28
:100E6D008822AF8922AF8A22AF8B22AF8C22AF8D21
:100E7D0022AF8E22AF8F22AF9022AF9122AF92225E
:100E8D00AF9322AF9422AF9522AF9622AF9722AFA8
:100E9D009822AF9922AF9A22AF9B22AF9C22AF9D91
:100EAD0022AF9E22AF9F22AFA022AFA122AFA222DE
:100EBD00AFA322AFA422AFA522AFA622AFA722AF28
:100ECD00A822AFA922AFAA22AFAB22AFAC22AFAD01
:100EDD0022AFAE22AFAF22AFB022AFB122AFB2225E
:100EED00AFB322AFB422AFB522AFB622AFB722AFA8
:100EFD00B822AFB922AFBA22AFBB22AFBC22AFBD71
:100F0D0022AFBE22AFBF22AFC022AFC122AFC222DD
:030F1D00AFC3223D
:100F2000AFC422AFC522AFC622AFC722AFC822AF1F
:100F3000C922AFCA22AFCB22AFCC22AFCD22AFCED7
:100F400022AFCF22AFD022AFD122AFD222AFD32255
:100F5000AFD422AFD522AFD622AFD722AFD822AF9F
:100F6000D922AFDA22AFDB22AFDC22AFDD22AFDE47
:100F700022AFDF22AFE022AFE122AFE222AFE322D5
:100F8000AFE422AFE522AFE622AFE722AFE822AF1F
:100F9000E922AFEA22AFEB22AFEC22AFED22AFEEB7
:100FA00022AFEF22AFF022AFF122AFF222AFF32255
:100FB000AFF422AFF522AFF622AFF722AFF822AF9F
:100FC000F922AFFA22AFFB22AFFC22AFFD22AFFE27
:040FD00022AFFF222B
:10164900020800E493A3F8E493A34003F68001F2AF
:1016590008DFF48029E493A3F85407240CC8C333A2
:10166900C4540F4420C8834004F456800146F6DF71
:10167900E4800B0102040810204080900FD4E47E1E
:10168900019360BCA3FF543F30E509541FFEE49366
:10169900A360010ECF54C025E060A840B8E493A32D
:1016A900FAE493A3F8E493A3C8C582C8CAC583CA58
:1016B900F0A3C8C582C8CAC583CADFE9DEE780BE10
:0111370000B7
:10113800BB010689828A83E0225002E722BBFE02B5
:09114800E32289828A83E49322E8
:10115100BB010CE58229F582E5833AF583E0225053
:1011610006E92582F8E622BBFE06E92582F8E2229D
:0D117100E58229F582E5833AF583E49322B7
:10117E00EF8DF0A4A8F0CF8CF0A428CE8DF0A42E85
:02118E00FE223F
:10119000C2D5EC30E709B2D5E4C39DFDE49CFCEE7A
:1011A00030E715B2D5E4C39FFFE49EFE12122CC3B4
:1011B000E49DFDE49CFC800312122C30D507C3E4AF
:0611C0009FFFE49EFE22E9
:0C11C600E493FB740193FA740293F92285
:1011D200D083D082F8E4937012740193700DA3A3AC
:1011E20093F8740193F5828883E4737402936860C0
:0611F200EFA3A3A380DFC0
:10048A00E5432437F8E60543227834300702783703
:10049A00E475F0011212810211382000EB7F2ED28E
:1004AA00008018EF540F2490D43440D4FF30040B4A
:1004BA00EF24BFB41A0050032461FFE5446002151B
:1004CA00440547E5477002054630070D7834E47560
:1004DA00F001121281EF0211F80219B37403D20764
:1004EA008003E4C207F5438B348A358936E4F54440
:1004FA00F546F547E54460077F201204C580F57587
:10050A0045FFC201C200C202C203C205C206C20836
:10051A00120493FF700D3007057F001204D6AF470F
:10052A00AE4622B4255FC2D5C204120493FF24D07A
:10053A00B40A00501A75F00A784430D50508B6FF97
:10054A000106C6A426F620D5047002D20380D92457
:10055A00CFB41A00EF5004C2E5D2040206D6D20183
:10056A0080C6D20080C0D20280BCD2D580BAD20561
:10057A0080B47F201204C52002077401B5440040EC
:10058A00F112048AFF1204C50204FED208D20680C0
:10059A009512048AFB12048AFA12048AF94A4B70E9
:1005AA000679A77A077BFF20022EE544602A7E009F
:1005BA008E8275830012115160060EEE654570F049
:1005CA00C2D5EBC0E0EAC0E0E9C0E0EE12071DD0F8
:1005DA00E0F9D0E0FAD0E0FB121138FF60AAEBC0D4
:1005EA00E0EAC0E0E9C0E01204C5D0E02401F9D095
:1005FA00E03400FAD0E0FBE5450460DCD545D9805B
:10060A00877BFF7A077919D202809C791080027958
:10061A0008C206C2088008D2D5790A8004790AC2BB
:10062A00D5E545047002F545E4FAFDFEFF12048A99
:10063A00FC7B0820011312048AFD7B1030000A1289
:10064A00048AFE12048AFF7B20EC3382D592D550AD
:10065A0013C3E43000069FFFE49EFEE42001039DDD
:10066A00FDE49CFCE4CBF8C201EC700CCFCECDCCFF
:10067A00E824F8F870F38017C3EF33FFEE33FEED8A
:10068A0033FDEC33FCEB33FB994002FB0FD8E9EB6B
:10069A00300105F8D0E0C448B201C0E00AEC4D4E82
:1006AA004F78207B0070C2EAB5450040BCC0E0121A
:1006BA00071FD0F0D0E0200104C4C0E0C4B201C0DA
:1006CA00F01204AED0F0D5F0EB0204FE1211D205FE
:1006DA009B53061558056C4C05684206194F0621AE
:0F06EA0044062149058143062755060B46060B9A
:1006F90045060B4707C75005702D05742E05972B26
:1007090005782305952007B02A0530480000058F94
:100719003F3F3F00790AA2D5200314300509B910DB
:10072900020404B9080104A2D520060250010420DC
:1007390002689202B544005034C0E07F20300319AA
:100749007F30A20272067205500F120776C202C2EA
:1007590006C205C2087F30800F300503E9C0E012E8
:1007690004C5300503D0E0F9D0E0B544CC30051715
:100779007F30B9100C1204C57F583004077F788088
:1007890003B908031204C53002057F2D0204C57F91
:10079900202008F87F2B2006F322920280CF286EB2
:1007A900756C6C2900D20112048A3001F8C20178F3
:1007B9004430D50108F60205302D5043495812043A
:1007C9008A2403B405004001E49007C2931204B6D9
:0D07D900743A1204B6D203754404020615EA
:101A6E0010090B121AC7BF0D027F0A0219B3AF1667
:011A7E002245
:0F1A9000EFC394304007EF943A50028001C32215
:101A7F00EFC39461400AEF947B5005EF24E0FF22FF
:011A8F002234
:101505008B2F8A3089318C328D33E4F534F535E50E
:101515003324FFFFE53234FFFEC3E5359FEE6480DB
:10152500F8E5346480985069121A6EAB2FAA30A979
:1015350031853582853483EF12120AFFBF0A028096
:1015450050AB2FAA30A931853582853483121151CC
:10155500B4081AE53545346008E5351535700215CA
:10156500347F201219B37F081219B380A2AB2FAABA
:1015750030A931853582853483121151FF6411609C
:101585008EEF641360890535E535708305340215E2
:1015950014AB2FAA30A931853582853483E4121224
:0215A5000A2218
:101A0E00E4FFFE121138600C0FEF70010E09E97041
:051A1E00F20A80EF2236
:1016C9008B2F8A308931E94A4B700985132F85148C
:1016D90030851531E5314530452F7002802C853232
:1016E9003885333985343AAB2FAA30A931121862BB
:1016F900EF2531F531EE3530F530AB2FFAA931123E
:101709001138700AF513F514F515FBFAF92285322B
:101719003885333985343AAB2FAA30A9311218C329
:101729008B138A148915EA494B600EE41211F804E7
:101739002515F515E43514F514AB2FAA30A9312276
:101457008B2F8A308931AB2FAA30A931121138FF6F
:10146700121A49500D74012531F531E43530F53044
:1014770080E4D200AB2FAA30A931121138FF642BB8
:101487006004EFB42D1BAB2F0531E531AA30700294
:10149700053014F9121138642D6003D38001C3920B
:1014A70000E4F532F533AB2FAA30A931121138FF1A
:1014B700121A905036AB2FAA30A931121138FF33C8
:1014C70095E0FEEF24D0FBEE34FFFAAE32AF337C6B
:1014D700007D0A12117EEF2BF533EE3AF5327401D7
:1014E7002531F531E43530F53080BB300006AE32BA
:0E14F700AF338009C3E49533FFE49532FE2243
:1011F800BB010689828A83F0225002F722BBFE01D6
:02120800F322CF
:10120A00F8BB010DE58229F582E5833AF583E8F01A
:10121A00225006E92582C8F622BBFE05E92582C8C6
:02122A00F222AE
:10122C00BC000BBE0029EF8DF084FFADF022E4CCA6
:10123C00F875F008EF2FFFEE33FEEC33FCEE9DEC6F
:10124C00984005FCEE9DFE0FD5F0E9E4CEFD22EDB5
:10125C00F8F5F0EE8420D21CFEADF075F008EF2FFF
:10126C00FFED33FD4007985006D5F0F222C398FDF0
:05127C000FD5F0EA228D
:10128100FAE6FB0808E6F925F0F618E6CA3AF6226E
:1019B300EFB40A07740D1219BE740A309811A8996E
:1019C300B8130CC2983098FDA899C298B811F63094
:0719D30099FDC299F599226C
:0A1AC7003098FDAF99C2987E00220E
:101A4900EFC394094005EF940E4003BF2003D380F0
:031A590001C322A4
:101862008B358A368937E4F53BF53CE4FEFFAB382D
:10187200AA39A93A8F828E83121151FD6013AB35BA
:10188200AA36A9371211386D60070FBF00010E800A
:10189200DDAB38AA39A93A8F828E831211517002B8
:1018A200801A053CE53C7002053BAB350537E53750
:1018B20070020536F9AA3612113870AFAE3BAF3C52
:0118C2002203
:1018C3008B358A36893785383B85393C853A3DAB3C
:1018D3003BAA3CA93D121138FF6019AB35AA36A9C2
:1018E300371211386F600D7401253DF53DE4353C29
:1018F300F53C80DBAB3BAA3CA93D1211386007AB3A
:1019030035AA36A93722AB350537E537AA36700233
:0D191300053614F912113870ADFBFAF922F7
:00000001FF
