:03000000021643A2
:0C164300787FE4F6D8FD7581EB02168A72
:1007BF00484C5400444F0049004C4F4F50002E00FE
:1007CF00505243004352004B455900524554004488
:1007DF0055500044524F5000535741500052505300
:1007EF00480052504F50005244524F50005246450D
:1007FF00544348002B002D002A002F00250026000F
:10080F007C005E003D3D003C3E003E003E3D003C16
:10081F00003C3D002B2B002D2D007E004A4D50003B
:10082F004A535200494600494642524B00494643FB
:10083F004E54004C30004C31004C32004C33004CC5
:10084F0034004C35004C36004C37004C38004C39D6
:10085F000041004200430044004500460047004865
:10086F00005041005042005043005044005045009A
:10087F005046005047005048004D52004D5700530E
:10088F005200535700543000543100543200543347
:10089F0000505430005054310050543200505433F3
:1008AF0000653A646F0A0D00353120737461636B14
:1008BF002D766D2025730D0A0076302E33423200CF
:1008CF00434025643A0025642C000A0D523A000A71
:1008DF000D644025643A000A0D724025643A000AFF
:1008EF000D543A25642F25642F25642F2564000AA3
:1008FF000D732F722F7A2C782F740A0D00653A6CB6
:10090F00780A0D000A0D3C25644025643E002564DD
:10091F00002563000A0D00653A25644025640A0D21
:10092F00000A0D3E002000653A6172670A0D0065EE
:10093F003A6865780A0D00653A6973610A0D00FF20
:10094F0007BF00FF07C301FF07C602FF07C803FF6A
:10095F0007CD0AFF07CF0DFF07D30BFF07D60EFFFB
:10096F0007DA16FF07DE5AFF07E25BFF07E75CFFB8
:10097F0007EC5DFF07F15EFF07F65FFF07FC60FF07
:10098F00080328FF080529FF08072AFF08092BFF7E
:10099F00080B2CFF080D2DFF080F2EFF08112FFF3E
:1009AF00081330FF081631FF081932FF081B33FFF9
:1009BF00081E34FF082035FF082336FF082637FFAF
:1009CF00082938FF082B14FF082F15FF083317FFCE
:1009DF00083618FF083C19FF08421EFF08451FFF85
:1009EF00084820FF084B21FF084E22FF085123FF24
:1009FF00085424FF085725FF085A26FF085D27FFD4
:100A0F00086046FF086247FF086448FF086649FF11
:100A1F0008684AFF086A4BFF086C4CFF086E4DFFD1
:100A2F00087050FF087351FF087652FF087953FF83
:100A3F00087C54FF087F55FF088256FF088557FF33
:100A4F00088864FF088B65FF088E66FF089167FFB3
:100A5F0008946EFF08976FFF089A70FF089D71FF4B
:0F0A6F0008A078FF08A479FF08A87AFF08AC7BDD
:10112900010A0001E90001E8002020680000000030
:1011390000000000000000000000000000000000A6
:10114900000000000000000000000000202048000E
:101159000000000000000000000000000000000086
:101169000000000000000000000000000000006115
:101179000000000000000000000000000000000066
:101189000000000000000000000000000000000056
:101199000000000000000000000000000000000046
:1011A9000000000000000000000000000000000036
:1011B9000000000000000000000000000000000026
:1011C9000000000000000000000000000000000016
:1011D9000000000000000000000000000000000006
:1011E90000000000000000000000000000000000F6
:1011F90000000000000000000000000000000000E6
:1012090000000000000000000000000000000000D5
:1012190000000000000000000000000000000000C5
:1012290000000000000000000000000000000000B5
:1012390000000000000000000000000000000000A5
:101249000000000000000000000000000000000095
:101259000000000000000000000000000000000085
:101269000000000000000000000000000000000075
:0312790000000072
:10136D0078E8E625E02443F8E62401F53218E43662
:10137D00F53178E8E625E02441F9C3E5329719E720
:10138D006480F8E5316480982278EAE6FE08E62468
:10139D0000F58274003EF583E022D3EF9532E531FE
:1013AD006480F8EE6480987E002274002530F5820A
:1013BD007400352FF583E02225E02446F8E6FE087B
:1013CD00E6FF22AB27AA28A929227532FF7533091A
:1013DD007534347B00227BFF7A0879D5E53025E022
:1013ED0022121A5B8E318F32E53222853982758356
:1013FD0000120FDDFF22121A5BE5302FF582E52F6B
:10140D003EF58322C39410E52F64809480227401ED
:10141D002530F5827400352FF5832274022530F5C1
:10142D00827400352FF58322121A9D78EAE6FE08A4
:10143D00E62278E9E625E024662278EAA60608A6E3
:10144D000722AB33AA34A93522F8A60608A607222F
:1019E00053877F759850538EBF538EFE53890F4394
:0D19F0008920758BFD758DFDC2ABD28E2256
:03000B00021920B7
:10192000C0E0C0D0D3E50C9400E50B94004008E57E
:101930000C150C7002150BD3E50E9400E50D940008
:101940004008E50E150E7002150DD3E5109400E564
:101950000F94004008E51015107002150FD3E51222
:101960009400E51194004008E5121512700215115B
:05197000D0D0D0E032F0
:101A4100538E7F5389F0758A66758CFCC28DD28C5A
:031A5100D2A922F5
:061800008B338A348935A8
:10180600AB36AA37A938121A2CC006C00712144FD5
:10181600121A2CD005D004EF6D7002EE6C60037FB7
:101826000122E4F53912144F121A2CC3E5399FE44C
:101836009E5026AB36AA37A9381213F8121ABFC023
:101846000712144F1213F8121ABFAE07D007EE6F25
:0B18560060037F0122053980CC7F0079
:011861002264
:061975008B2F8A3089313E
:10197B00E4F53275F004E53290094E121052121054
:10198B005E8B368A378938AB2FAA30A931121800F3
:10199B00EF700F75F004E532900951121052E49379
:0D19AB00FF220532E532C3944C40C87F7F17
:0119B800220C
:10174F00E4FDEF2401FFE43EFEC3EE64809481507C
:10175F004474002FF58274003EF583E0FC6445600D
:10176F000DEC64146008EC64156003BC1709740277
:10177F002FFFE43EFE8017BC01030D8011BC030454
:10178F00ED700122BC0307EDD3940040011D0FBF84
:10179F0000010E80B47BFF7A0879B01204C57EFF7A
:0217AF007FFFBA
:0117B1002215
:071A5400121A5B8E318F3284
:0C1A5B0078E916E625E024681213C92281
:0C1ADF0078E816E625E024481213C9221E
:101A8C0078E9E625E02468F8A60608A60778E906B2
:011A9C002227
:101A9D0078E8E625E02448F8A60608A60778E806C3
:011AAD002216
:101A7A007537FF7538087539C87BFF7A0879B70258
:021A8A0004C591
:10127D00121A7A7BFF7A0879CF78EA121362E4F5B5
:10128D002FF5307BFF7A0879D574002530F58274FF
:10129D0000352FF583E0753700F5381204C505309C
:1012AD00E5307002052FC3E52F6480948140D47B17
:1012BD00FF7A0879D91204C5E4F52FF5301213E33E
:1012CD0024D81213417002052FC394081214144030
:1012DD00EC7A0879DE78E91213511213E3246812BF
:1012ED0013417002052F12141140EF7A0879E67838
:1012FD00E81213511213E32448F81213620530E576
:10130D00307002052F12141140EA7BFF7A0879EE36
:10131D00850B37850C38850D39850E3A850F3B8544
:10132D00103C85113D85123E1204C57BFF7A08796C
:04133D00FE0204C5E3
:10134100F8E6F53708E6F5381204C50530E5302230
:101351007BFFE6753700F5381204C5E4F52FF5304B
:0C13610022E6F53708E6F5381204C52234
:1017B200E478EAF608F678E9F618F6F50BF50CF592
:1017C2000DF50EF50FF510F511F512EF600E7C0117
:1017D2007D00900000E4F0A3DDFCDCFAE4FD7C1067
:1017E20078D8E4F608DCFCE4FD7C207868E4F608AE
:0D17F200DCFCE4FD7C207848E4F608DCFC1B
:0117FF0022C7
:1015AD00E4F52FF5301213B7B44502C1081213B785
:1015BD006414600E1213B7641760071213B7641525
:1015CD00704412141BE0F47032121428E025E0244C
:1015DD0069F8E624FFF53218E634FFF531C364806F
:1015ED00948050097BFF7A09790C0204C5121428E6
:1015FD00E532F0E531FF12141BEFF074022530F5E2
:10160D0030E4352FF52F0530E5307002052FC3E599
:10161D002F64809481408EE4F52FF530E53025E080
:10162D002468F8E4F608F60530E5307002052F64FD
:05163D0010452F70E7CD
:011642002285
:10000E00E4F52FF53078EAF608F6E599641B7002F0
:10001E008162121396F533E50AB401177BFF7A0954
:10002E00791375370085333818E6F53908E6F53A51
:10003E001204C5E53312106A04620003B0010431E4
:10004E000203DD0303190A03350B03400C03280DCD
:10005E0003680E013D14013F15014E16015A170497
:10006E00191803E719019C2801A82901B52A01D105
:10007E002B01C12C01DD2D01EA2E01F62F020230DB
:10008E00021931023032024033025134026235021B
:10009E007F36027237028B380296450116460116DC
:1000AE004701164801164901164A01164B01164C16
:1000BE0001164D011E50011E51011E52011E53010B
:1000CE001E54011E55011E56011E5702E35A02B45C
:1000DE005B02B95C02F85D03005E03055F030A6014
:1000EE00037264037B65038C66039A6701296E01B4
:1000FE00296F01297001297101317801317901319E
:10010E007A01317B00000440E53325E0244C611177
:10011E00121A5BE53325E024388011E53325E024FF
:10012E002F6111121A5BE53325E0241BF88016802F
:10013E002278EBE62402FF18E436FE121A9D801395
:10014E00121ADF78EAA60608A6078158121A5BEF84
:10015E004E602F1214382401F58274003EF583E0B0
:10016E00FE18E6FC08E62402F58274003CF583E0F6
:10017E007C002400FFEC3ECF24FFF6EF34FF18F690
:10018E00815878EB740226F618E436F68158121A66
:10019E0054E5322FFFE5313E417C121A54C3EF95E0
:1001AE0032FFEE9531417C121A54AC31AD32121041
:1001BE000A4117121A54AC31AD3212101CAE04AFF4
:1001CE00058046121A54AC31AD3212101C813B120E
:1001DE001A54E5315EFEE5325FFF813B121A54E59B
:1001EE00314EFEE5324F6116121A54E5316EFEE5C0
:1001FE00326F6116121A54EFB5320AEEB531067E21
:10020E00007F0180047E007F00813B121A54EF654F
:10021E00327003EE65317E0060047F0180027F0044
:10022E00813B121A541213A740047F0180027F00F3
:10023E00813B121A54C31213A840047F0180027F1F
:10024E0000813B121A54C31213A850047F0180027E
:10025E007F00813B121A541213A750047F018002B3
:10026E007F00813B1213EE24FFFFE53134FFFE8148
:10027E003B1213EE2401FFE43531FE813B1213EEE7
:10028E00F4FFE531F4FE813B78EB06E618700106CB
:10029E00121396F50806E618700106121396F50964
:1002AE00AF09AE08813B78E916815812143FF8E683
:1002BE00F53108E6F53278E9E625E024641213C933
:1002CE0012143F12145678E9E625E02464F8A6319C
:1002DE0008A632815812143F1213C978E9E625E0B8
:1002EE00246812145678E9068158121A5B121A9D68
:1002FE008158121ADF813B78E816815878E8E62596
:10030E00E02446F8E6FE08E6FF813B121A5B8E37C4
:10031E008F387BFF7A09791D8013121A5B8F377B1A
:10032E00FF7A09792080067BFF7A0979231204C5AA
:10033E00815878EB06E6187001061213967002814A
:10034E00587BFF7A09792018121398F5371204C5D5
:10035E0078EB06E61870E30680E0121AAEEF3395DE
:10036E00E0FE813B121403E0FF7E00813B121A5B1C
:10037E007531008F32AD32121403EDF08158121A1E
:10038E005BEF2480FF120E2D7E00813B121A5B75EF
:10039E0031008F32121A5BEF2480FFAD32120C96B1
:1003AE008158121A5B121A9D121A5B121435FF1223
:1003BE001435FF12174F121A9D78E8E625E02442F5
:1003CE00F8E6F53108E6F53212137F407D812012F2
:1003DE00136D78E85033E6800F121A5BEF4E606AA9
:1003EE0012136D78E8E6501925E02442F8A631087C
:1003FE00A63278E8E625E024441213C91214478089
:10040E00491213C512144778E88012121A5BEF4E88
:10041E00603878E8E61213C512144778E874FC26A3
:10042E00F6802778E8E625E024421213C9121A8CCA
:10043E0080187BFF7A09792675370085333878EA7C
:10044E00E6F53908E6F53A0204C578EB06E61870CB
:04045E00010601187A
:010462002277
:1019FD0078EAE6FC08E62400F58274003CF583EFF6
:081A0D00F006E6187001062244
:101A1500AB07AA067F451219FD8A088B09AF081284
:071A250019FDAF090219FDD4
:091AF5007BFF7A0979300204C577
:100A7E00E4F5231219E0D299121A4175FFDE75FFC3
:100A8E00ADD2AF121A7A7F011217B27B007A0079BB
:100A9E00887D507C0012150B7888E67003121AF5CB
:100AAE007889E6703B18E6248E6016146021146077
:100ABE002324FA6013240270271215AD12000E8043
:100ACE001AE4FF1217B280137F011217B2800C12B4
:100ADE00127D8007C37401950AF50A121AF580ABD0
:100AEE00752601E526B4010F1213D77A0079881204
:100AFE000C8CE4F526800A1213D77A007900120CBA
:100B0E008CE5294528452760821213D01219758F5E
:100B1E0025E5256414600CE52564156006E525645D
:100B2E001770491213D77A0079001216CF8B2A8AC2
:100B3E002B892CE94A4B700B7BFF7A09793612040C
:100B4E00C54199AB2AAA2BA92C1219758F22E52221
:100B5E00C3941E4017E522D394275010AF251219C7
:100B6E00FD7FFF1219FDE52224E2805EE525C39488
:100B7E001E401CE525D39427501578EBE62401FF83
:100B8E0018E436FEE52525E0242C12145641F1E535
:100B9E0025647F6004AF2580321213D0120FC46417
:100BAE0027702D7F0C1219FDE4F5228522827583A4
:100BBE0000A31213D0120FDDFF6427600C1219FD73
:100BCE000522E522C3940840E2E4FF1219FD41F12B
:100BDE001213D0120FC464307071900001120FDD29
:100BEE00FF121ABFEF64587062F52DF52E752202B2
:100BFE001213D0121A2CC3E5229FE49E506C1213CE
:100C0E00D08522821213FB121ABF8F24E52424D022
:100C1E0024F6500824F924FA5006800C74D0800271
:100C2E0074C92524F52480097BFF7A09793E1204C4
:100C3E00C5E52EC4F8540FC868FFE52DC454F0481E
:100C4E00F52DEF4524F52E052280A51213D0121492
:100C5E005D8E2D8F2EE52E452D700FE52E452D70B8
:100C6E00121213D0120FC4B43009AF2EAE2D121AB9
:0E0C7E001541F17BFF7A0979461204C541F158
:0A0C8C001216CF8B278A288929222F
:100C9600EFC394405009EF75F003A4900CAD737543
:100CA600F003A4900D6D738D80228D81228D82229A
:100CB6008D83228D84228D85228D86228D87228D9D
:100CC60088228D89228D8A228D8B228D8C228D8D74
:100CD600228D8E228D8F228D90228D91228D9222B1
:100CE6008D93228D94228D95228D96228D97228D1D
:100CF60098228D99228D9A228D9B228D9C228D9DE4
:100D0600228D9E228D9F228DA0228DA1228DA22230
:100D16008DA3228DA4228DA5228DA6228DA7228D9C
:100D2600A8228DA9228DAA228DAB228DAC228DAD53
:100D3600228DAE228DAF228DB0228DB1228DB222B0
:100D46008DB3228DB4228DB5228DB6228DB7228D1C
:100D5600B8228DB9228DBA228DBB228DBC228DBDC3
:100D6600228DBE228DBF228DC0228DC1228DC22230
:030D76008DC32208
:100D79008DC4228DC5228DC6228DC7228DC8228D94
:100D8900C9228DCA228DCB228DCC228DCD228DCE2A
:100D9900228DCF228DD0228DD1228DD2228DD322A8
:100DA9008DD4228DD5228DD6228DD7228DD8228D14
:100DB900D9228DDA228DDB228DDC228DDD228DDE9A
:100DC900228DDF228DE0228DE1228DE2228DE32228
:100DD9008DE4228DE5228DE6228DE7228DE8228D94
:100DE900E9228DEA228DEB228DEC228DED228DEE0A
:100DF900228DEF228DF0228DF1228DF2228DF322A8
:100E09008DF4228DF5228DF6228DF7228DF8228D13
:100E1900F9228DFA228DFB228DFC228DFD228DFE79
:040E2900228DFF22F5
:100E2D00EFC394405009EF75F003A4900E44737511
:100E3D00F003A4900F0473AF8022AF8122AF822202
:100E4D00AF8322AF8422AF8522AF8622AF8722AF38
:100E5D008822AF8922AF8A22AF8B22AF8C22AF8D31
:100E6D0022AF8E22AF8F22AF9022AF9122AF92226E
:100E7D00AF9322AF9422AF9522AF9622AF9722AFB8
:100E8D009822AF9922AF9A22AF9B22AF9C22AF9DA1
:100E9D0022AF9E22AF9F22AFA022AFA122AFA222EE
:100EAD00AFA322AFA422AFA522AFA622AFA722AF38
:100EBD00A822AFA922AFAA22AFAB22AFAC22AFAD11
:100ECD0022AFAE22AFAF22AFB022AFB122AFB2226E
:100EDD00AFB322AFB422AFB522AFB622AFB722AFB8
:100EED00B822AFB922AFBA22AFBB22AFBC22AFBD81
:100EFD0022AFBE22AFBF22AFC022AFC122AFC222EE
:030F0D00AFC3224D
:100F1000AFC422AFC522AFC622AFC722AFC822AF2F
:100F2000C922AFCA22AFCB22AFCC22AFCD22AFCEE7
:100F300022AFCF22AFD022AFD122AFD222AFD32265
:100F4000AFD422AFD522AFD622AFD722AFD822AFAF
:100F5000D922AFDA22AFDB22AFDC22AFDD22AFDE57
:100F600022AFDF22AFE022AFE122AFE222AFE322E5
:100F7000AFE422AFE522AFE622AFE722AFE822AF2F
:100F8000E922AFEA22AFEB22AFEC22AFED22AFEEC7
:100F900022AFEF22AFF022AFF122AFF222AFF32265
:100FA000AFF422AFF522AFF622AFF722AFF822AFAF
:100FB000F922AFFA22AFFB22AFFC22AFFD22AFFE37
:040FC00022AFFF223B
:10164F00020A7EE493A3F8E493A34003F68001F229
:10165F0008DFF48029E493A3F85407240CC8C3339C
:10166F00C4540F4420C8834004F456800146F6DF6B
:10167F00E4800B0102040810204080901129E47EC1
:10168F00019360BCA3FF543F30E509541FFEE49360
:10169F00A360010ECF54C025E060A840B8E493A327
:1016AF00FAE493A3F8E493A3C8C582C8CAC583CA52
:1016BF00F0A3C8C582C8CAC583CADFE9DEE780BE0A
:01127C000071
:100FC400BB010689828A83E0225002E722BBFE022B
:090FD400E32289828A83E493225E
:100FDD00BB010CE58229F582E5833AF583E02250C9
:100FED0006E92582F8E622BBFE06E92582F8E22213
:0D0FFD00E58229F582E5833AF583E493222D
:10100A00EF8DF0A4A8F0CF8CF0A428CE8DF0A42EFA
:02101A00FE22B4
:10101C00C2D5EC30E709B2D5E4C39DFDE49CFCEEEF
:10102C0030E715B2D5E4C39FFFE49EFE1210C4C393
:10103C00E49DFDE49CFC80031210C430D507C3E48E
:06104C009FFFE49EFE225E
:0C105200A42582F582E5F03583F58322A9
:0C105E00E493FB740193FA740293F922EE
:10106A00D083D082F8E4937012740193700DA3A315
:10107A0093F8740193F5828883E473740293686029
:06108A00EFA3A3A380DF29
:10046300E5432437F8E6054322783430070278372A
:10047300E475F001121119020FC42000EB7F2ED294
:10048300008018EF540F2490D43440D4FF30040B71
:10049300EF24BFB41A0050032461FFE54460021542
:1004A300440547E5477002054630070D7834E47587
:1004B300F001121119EF0210900219B97403D20757
:1004C3008003E4C207F5438B348A358936E4F54467
:1004D300F546F547E54460077F2012049E80F575D5
:1004E30045FFC201C200C202C203C205C206C2085E
:1004F30012046CFF700D3007057F001204AFAF4785
:10050300AE4622B4255FC2D5C20412046CFF24D0C8
:10051300B40A00501A75F00A784430D50508B6FFBE
:100523000106C6A426F620D5047002D20380D9247E
:10053300CFB41A00EF5004C2E5D2040206AFD201D1
:1005430080C6D20080C0D20280BCD2D580BAD20588
:1005530080B47F2012049E2002077401B54400403A
:10056300F1120463FF12049E0204D7D208D206805C
:1005730095120463FB120463FA120463F94A4B7085
:100583000679807A077BFF20022EE544602A7E00ED
:100593008E82758300120FDD60060EEE654570F0E6
:1005A300C2D5EBC0E0EAC0E0E9C0E0EE1206F6D047
:1005B300E0F9D0E0FAD0E0FB120FC4FF60AAEBC071
:1005C300E0EAC0E0E9C0E012049ED0E02401F9D0E3
:1005D300E03400FAD0E0FBE5450460DCD545D98082
:1005E300877BFF7A0679F2D202809C7910800279A8
:1005F30008C206C2088008D2D5790A8004790AC2E3
:10060300D5E545047002F545E4FAFDFEFF120463E7
:10061300FC7B08200113120463FD7B1030000A12D7
:100623000463FE120463FF7B20EC3382D592D55022
:1006330013C3E43000069FFFE49EFEE42001039D04
:10064300FDE49CFCE4CBF8C201EC700CCFCECDCC26
:10065300E824F8F870F38017C3EF33FFEE33FEEDB1
:1006630033FDEC33FCEB33FB994002FB0FD8E9EB92
:10067300300105F8D0E0C448B201C0E00AEC4D4EA9
:100683004F78207B0070C2EAB5450040BCC0E01241
:1006930006F8D0F0D0E0200104C4C0E0C4B201C029
:1006A300F0120487D0F0D5F0EB0204D712106A05DC
:1006B300745305EE5805454C05414205F24F05FAC2
:0F06C3004405FA49055A4306005505E44605E487
:1006D2004505E44707A05005492D054D2E05702B11
:1006E200055123056E2007892A050948000005687F
:1006F2003F3F3F00790AA2D5200314300509B91003
:10070200020404B9080104A2D52006025001042003
:1007120002689202B544005034C0E07F20300319D1
:100722007F30A20272067205500F12074FC202C238
:1007320006C205C2087F30800F300503E9C0E0120F
:10074200049E300503D0E0F9D0E0B544CC30051763
:100752007F30B9100C12049E7F583004077F7880D6
:1007620003B9080312049E3002057F2D02049E7F06
:10077200202008F87F2B2006F322920280CF286ED9
:10078200756C6C2900D2011204633001F8C2017841
:100792004430D50108F60205092D50434958120488
:1007A200632403B405004001E490079B9312048F75
:0D07B200743A12048FD2037544040205EE60
:101AAE0010090B121AEBBF0D027F0A0219B9AF16FD
:011ABE002205
:101ABF00EFC39461400AEF947B5005EF24E0FF22BF
:011ACF0022F4
:10150B008B2F8A3089318C328D33E4F534F535E508
:10151B003324FFFFE53234FFFEC3E5359FEE6480D5
:10152B00F8E5346480985069121AAEAB2FAA30A933
:10153B0031853582853483EF1210A2FFBF0A0280FA
:10154B0050AB2FAA30A931853582853483120FDD3C
:10155B00B4081AE53545346008E5351535700215C4
:10156B00347F201219B97F081219B980A2AB2FAAA8
:10157B0030A931853582853483120FDDFF6411600C
:10158B008EEF641360890535E535708305340215DC
:10159B001AAB2FAA30A931853582853483E412101A
:0215AB00A2227A
:101A2C00E4FFFE120FC4600C0FEF70010E09E97099
:051A3C00F20A80EF2218
:1016CF008B2F8A308931E94A4B700985132F851486
:1016DF0030851531E5314530452F7002802C85322C
:1016EF003885333985343AAB2FAA30A931121862B5
:1016FF00EF2531F531EE3530F530AB2FFAA9311238
:10170F000FC4700AF513F514F515FBFAF92285329B
:10171F003885333985343AAB2FAA30A9311218C323
:10172F008B138A148915EA494B600EE4121090044A
:10173F002515F515E43514F514AB2FAA30A9312270
:10145D008B2F8A308931AB2FAA30A931120FC4FFDF
:10146D00121A67500D74012531F531E43530F53020
:10147D0080E4D200AB2FAA30A931120FC4FF642B28
:10148D006004EFB42D1BAB2F0531E531AA3070028E
:10149D00053014F9120FC4642D6003D38001C3927B
:1014AD0000E4F532F533AB2FAA30A931120FC4FF8A
:1014BD00121AD05036AB2FAA30A931120FC4FF33F8
:1014CD0095E0FEEF24D0FBEE34FFFAAE32AF337C65
:1014DD00007D0A12100AEF2BF533EE3AF532740146
:1014ED002531F531E43530F53080BB300006AE32B4
:0E14FD00AF338009C3E49533FFE49532FE223D
:10109000BB010689828A83F0225002F722BBFE013F
:0210A000F32239
:1010A200F8BB010DE58229F582E5833AF583E8F084
:1010B200225006E92582C8F622BBFE05E92582C830
:0210C200F22218
:1010C400BC000BBE0029EF8DF084FFADF022E4CC10
:1010D400F875F008EF2FFFEE33FEEC33FCEE9DECD9
:1010E400984005FCEE9DFE0FD5F0E9E4CEFD22ED1F
:1010F400F8F5F0EE8420D21CFEADF075F008EF2F69
:10110400FFED33FD4007985006D5F0F222C398FD59
:051114000FD5F0EA22F6
:10111900FAE6FB0808E6F925F0F618E6CA3AF622D7
:1019B900EFB40A07740D1219C4740A309811A89962
:1019C900B8130CC2983098FDA899C298B811F6308E
:0719D90099FDC299F5992266
:0A1AEB003098FDAF99C2987E0022EA
:0F1AD000EFC394304007EF943A50028001C322D5
:101A6700EFC394094005EF940E4003BF2003D380D2
:031A770001C32286
:101862008B358A368937E4F53BF53CE4FEFFAB382D
:10187200AA39A93A8F828E83120FDDFD6013AB3530
:10188200AA36A937120FC46D60070FBF00010E8080
:10189200DDAB38AA39A93A8F828E83120FDD70022E
:1018A200801A053CE53C7002053BAB350537E53750
:1018B20070020536F9AA36120FC470AFAE3BAF3CC8
:0118C2002203
:1018C3008B358A36893785383B85393C853A3DAB3C
:1018D3003BAA3CA93D120FC4FF6019AB35AA36A938
:1018E30037120FC46F600D7401253DF53DE4353C9F
:1018F300F53C80DBAB3BAA3CA93D120FC46007ABB0
:1019030035AA36A93722AB350537E537AA36700233
:0D191300053614F9120FC470ADFBFAF9226D
:00000001FF
