:03000000021A07DA
:0C1A0700787FE4F6D8FD7581EB021A4EE2
:10000E0025730A0D00272B2F2A3A20272033323052
:10001E0030302050543020312033303030312044B5
:10002E004F20312032202B2044524F502033203489
:10003E00202A2044524F50204C4F4F502033323004
:10004E003030205430202D202E2043520027444C97
:10005E003A27203332303030205054302031203384
:10006E003030303120444F204C4F4F5020333230FF
:10007E003030205430202D202E20435200272B3A92
:10008E00272033323030302050543020312033305E
:10009E0030303120444F20312032202B2044524F1B
:1000AE0050204C4F4F5020333230303020543020BF
:1000BE002D202E2043520027412F50413A27203326
:1000CE003230303020505430203120333030303107
:1000DE0020444F2041205041204C4F4F502033326E
:1000EE00303030205430202D202E20435200274D0A
:1000FE00523A2720333230303020505430203020C6
:10010E003120333030303120444F204D52204C4F6F
:10011E004F50203332303030205430202D202E20BE
:10012E0044524F5020435200274455502F445250B2
:10013E003A272033323030302050543020302031A6
:10014E0020333030303120444F204455502044521B
:10015E004F50204C4F4F50203332303030205430DF
:10016E00202D202E2044524F502043520027533A28
:10017E0027203078383020372053572030783830C9
:10018E00205352202E20272C272030784431203720
:10019E00372053572030784431205352202E20439D
:1001AE00520027583A2720302030784220444F20E2
:1001BE0049204D52202E20272C27204C4F4F5020C7
:1001CE0043520027523A27203078463020504120A3
:1001DE004120307846464646202B202E20435200A2
:1001EE0031203520444F20492033203D3D204946C3
:1001FE00434E542049202E20273A27204A5352207E
:10020E00505220272C27204C4F4F50204352003164
:10021E002050412041473A20412035203E3D204983
:10022E00464A4D5020534B502041202E20273A272E
:10023E00204A535220505220272C27204120312073
:10024E002B205041204A4D5020414700534B503AED
:10025E002043522027712D71756974272031203962
:10026E0020444F204B455920435220445550202EB8
:10027E0020313133203D3D20494642524B204C4FD8
:10028E004F5000484C542050523A203120352044D3
:10029E004F2049202E204C4F4F502052455400489D
:1002AE004C5400444F0049004C4F4F50004A4D50A3
:1002BE00004A5352005245540049464A4D50004997
:1002CE004642524B004946434E54002E002E6300C8
:1002DE002E78004352004B4559004455500044526D
:1002EE004F50005357415000525053480052504FF8
:1002FE0050005244524F5000524645544348002B32
:10030E00002D002A002F00250026007C005E003DF7
:10031E003D003C3E003E003E3D003C003C3D002B7F
:10032E002B002D2D007E004100420043004400456D
:10033E000046004700480050410050420050430024
:10034E005044005045005046005047005048004D64
:10035E0052004D5700535200535700543000543141
:10036E000054320054330050543000505431005079
:10037E0054320050543300653A6D4C4F4F50006567
:10038E003A44537500653A52537500653A44536FBB
:10039E0000653A52536F00353120737461636B2DD3
:1003AE00766D2025730D0A0076302E3442310042D0
:1003BE00434025643A0025642C000A0D523A000A87
:1003CE000D44534025643A000A0D52534025643AB9
:1003DE00000A0D76543A25642C25642C25642C25B0
:1003EE006400653A6D4C4142000A0D3C256440257F
:1003FE00643E0025640030782578002563000A0DE0
:10040E0000653A25644025640A0D004E554D000ADC
:10041E000D23003C25733E2C00653A6D415247007A
:10042E004C414200653A624C4142005354520065C1
:10043E003A6248455800653A624E554D00653A623B
:10044E00434D4400653A624C454E00FF0013FF00D9
:10045E005BFF008BFF00C5FF00FCFF0136FF017B39
:10046E00FF01B0FF01D1FF01EEFF021DFF025AFF97
:10047E000291FF02AD00FF02B101FF02B402FF02C2
:10048E00B603FF02BB04FF02BF05FF02C306FF0255
:10049E00C707FF02CD08FF02D309FF02D90AFF02E8
:1004AE00DB0EFF02DE0BFF02E10CFF02E40FFF0288
:1004BE00E821FF02EC22FF02F123FF02F624FF02E5
:1004CE00FB25FF030026FF030627FF030D10FF0386
:1004DE000F11FF031112FF031313FF031514FF0374
:1004EE001715FF031916FF031B17FF031D18FF0334
:1004FE002019FF03231AFF03251BFF03281CFF03EC
:10050E002A1DFF032D1EFF03301FFF033320FF03A1
:10051E00353CFF03373DFF03393EFF033B3FFF03EF
:10052E003D40FF033F41FF034142FF034343FF03AF
:10053E004546FF034847FF034B48FF034E49FF0361
:10054E00514AFF03544BFF03574CFF035A4DFF0311
:10055E005D28FF036029FF03632AFF03662BFF0359
:10056E006950FF036C51FF036F52FF037253FF0379
:0E057E00755AFF03795BFF037D5CFF03815D0F
:081EE500010D00030800008854
:10170D0078EAE6FE08E62400F58274003EF583E0F3
:10171D00227400252CF5827400352BF583E0227898
:10172D00E8E625E02443F8E62401F52618E436F52D
:10173D002578E8E625E02441F9C3E5269719E76405
:10174D0080F8E52564809822AB26AA27A928852351
:10175D00827583001205A5FF2225E02446F8E6FEDA
:10176D0008E678EAFFA60608A60722AB26AA27A94F
:10177D002822E52275F003A42459F582E43404F5FA
:10178D008302067B7BFF7A0379C4E52425E022AB37
:10179D002BAA2CA92DEF3395E08F82F5830205A599
:1017AD00C39410E52364809480227401252CF58266
:1017BD007400352BF583227402252CF582740035C7
:1017CD002BF5832278EAE6FE08E62274002FF582D7
:1017DD0074003EF583E022F8E6FE08E6FF22AB2B0F
:0517ED00AA2CA92D2229
:101E48008B2F8A3089318B358A3689377BFF7A0028
:051E5800790E020D1DD2
:101DF50053877F759850538EBF538EFE53890F437B
:0D1E05008920758BFD758DFDC2ABD28E223C
:03000B00021BCF06
:101BCF00C0E0C0D0D3E50F9400E50E94004008E5C7
:101BDF000F150F7002150ED3E5119400E510940048
:101BEF004008E511151170021510D3E5139400E5A7
:101BFF001294004008E513151370021512D3E51562
:101C0F009400E51494004008E5151515700215149D
:051C1F00D0D0D0E0323E
:101E7200538E7F5389F0758A66758CFCC28DD28C25
:031E8200D2A922C0
:061B77008B2F8A3089313A
:101B7D00121E5D8F36AB32AA33A934121E5DE536C7
:101B8D006F60037F0122E4F535E535C39536502F9F
:101B9D00AB32AA33A93485358212175E121EA8C046
:101BAD0007AB2FAA30A93185358212175E121EA8F8
:101BBD00AE07D007EE6F60037F0122053580CA7F27
:011BCD000017
:011BCE0022F4
:061C6A008B2B8A2C892D52
:101C7000E4F52E75F004E52E90048012066F12062E
:101C80007B8B328A338934AB2BAA2CA92D121B777C
:101C9000EF700F75F004E52E90048312066FE49345
:0D1CA000FF22052EE52EC3944340C87F7F30
:011CAD002214
:101A9300E4FDEF2401FFE43EFEC3EE648094845032
:101AA300561217D8FCBC0D0C1217D860430FBF0099
:101AB300010E80F4BC33070FBF00010E8032EC64CB
:101AC30034600DEC64046008EC64056003BC070932
:101AD30074022FFFE43EFE8017BC01030D8011BC8E
:101AE3000304ED700122BC0307EDD3940040011DF4
:101AF3000FBF00010E80A27BFF7A037985121E4877
:041B03007EFF7FFFE3
:011B070022BB
:101D8F0078E916C3E664809480500D7BFF7A03795F
:101D9F008D121E48E478E9F678E9E625E02468120A
:031DAF0017E42214
:101DB20078E816C3E664809480500D7BFF7A03793D
:101DC20093121E48E478E8F678E8E625E024481203
:031DD20017E422F1
:1007DA0078E9E625E02468F8A60608A60778E90677
:1007EA00C3E664809490400D7BFF7A037999121EC8
:0607FA004878E9760F22A9
:101D690078E8E625E02448F8A60608A60778E806F4
:101D7900C3E664809490400D7BFF7A03799F121E1D
:061D89004878E8760F2205
:101E85007535FF7536037537B67BFF7A0379A5027D
:021E95000D1D21
:10161E00121E857BFF7A0379BD78EA121702E4F574
:10162E0023F524C3E524784796E523189650257BA9
:10163E00FF7A0379C474002524F58274003523F5EE
:10164E0083E0753500F536120D1D0524E52470D3A3
:10165E00052380CF7BFF7A0379C8120D1DE4F52395
:10166E00F52412179124D81216DE70020523C394A6
:10167E00081217B040EC7A0379CD78E91216EE1203
:10168E00179124681216DE700205231217AD40EF73
:10169E007A0379D678E81216EE1217912448F812CA
:1016AE0017020524E524700205231217AD40EA7BCC
:1016BE00FF7A0379DF850E35850F36851037851154
:1016CE003885123985133A85143B85153C020D1D5C
:1016DE00F8E6F53508E6F536120D1D0524E524224B
:1016EE007BFFE6FF3395E0F5358F36120D1DE4F5E1
:0F16FE0023F52422E6F53508E6F536120D1D22F8
:0917F2007F507888E4F608DFFC62
:0117FB0022CB
:091EC8007F1078D8E4F608DFFC75
:011ED10022EE
:101E12007F207868E4F608DFFCE478E9F67F207832
:0A1E220048E4F608DFFCE478E8F677
:011E2C002293
:101CAE00E478EAF608F6F50EF50FF510F511F512D3
:101CBE00F513F514F515EF60187E047F0090000003
:101CCE00E4F0A3DFFCDEFA7E047F00E47846F6083B
:0A1CDE00F6121EC8121E120217F2C1
:10196800E4F52BF52C12171EB40D0F12171E607814
:10197800052CE52C70F5052B80F112171EB4330ADF
:10198800052CE52C7002052B21F012171EB4340229
:1019980021E512171E6404600E12171E6407600703
:1019A80012171E640570411217B7E0F4702F121752
:1019B800C4E025E02448F8E6F52D08E6F52EB4FE47
:1019C8000EE52DB4FF097BFF7A0379F0021E481259
:1019D80017C4E52EF0E52DFF1217B7EFF0740225B6
:1019E8002CF52CE4352BF52B052CE52C7002052B5A
:0E19F800C3E52B648094845002216D121E12F0
:011A060022BD
:10080000E4F523F52478EAF608F6E599B41B03C26B
:10081000982212170DF527E50D60177BFF7A0379F3
:10082000F775350085273618E6F53708E6F53812EE
:100830000D1DE527C3943C400FE527D39443500892
:10084000E52725E0246061C1E527C394464012E511
:1008500027D3944D500B121D8FE52725E0244C80A3
:100860002DE527C39450400FE527D394535008E556
:100870002725E0246E61C1E527C3945A4013E5277C
:10088000D3945D500C121D8FE52725E0245AF821E2
:100890008AE527B4331078EB06E6187001061217C4
:1008A0000DFF7E0041EAE527B4341E78EB06E6181A
:1008B00070010612170DF50B06E6187001061217E7
:1008C0000DF50CAF0CAE0B41EAE527B42C0040024D
:1008D000810D9008D825E073812F2130215F216898
:1008E000217421762185219121D321E641184121CE
:1008F0004137413F412A41674170417C418A41A6CD
:10090000419641B241BE41CA41D641EC6102610FFC
:10091000611C612961436136614F615A616E617387
:1009200061A861B061B561BA61C961D261E661F780
:10093000120CAA120CAA1217D1FF121D691217D19C
:10094000FF121A93121D6978E8E625E02442F8E6C2
:10095000F52508E6F52612173E5002812521DC78A0
:10096000E8E625E0244261C112172C78E85003E63E
:1009700021F74112802278EBE62402FF18E436FECC
:10098000121D698013121DB278EAA60608A6078117
:1009900025121D8FEF4E602F1217D12401F582749E
:1009A000003EF583E0FE18E6FC08E62402F58274BA
:1009B000003CF583E07C002400FFEC3ECF24FFF6F2
:1009C000EF34FF18F6812578EB740226F618E4362A
:1009D000F68125121D8FEF4E7002812578E8E61210
:1009E000176678E8802C121D8FEF4E700281251259
:1009F000172C78E8E6501625E02442F8A62508A62C
:100A00002678E8E625E0244412176A812512176645
:100A100078E874FC26F68125120CB17A04790181FC
:100A200022120CB17A0479048122121D8F8F357B3A
:100A3000FF7A04790981227BFF7A04790C8122787C
:100A4000EB06E61870010612170D700281257BFF78
:100A50007A0479091812170FF535120D1D78EB0677
:100A6000E61870E30680E0121E97EF3395E06140D0
:100A7000120C30E5262FFFE5253E800B120C30C30B
:100A8000EF9526FFEE9525FE41EA120C3BAC25AD15
:100A9000261205D28054120C3BAC25AD2612063925
:100AA000AE04AF0561F2120C46AC25AD2612063934
:100AB00061F2120C46E5255EFEE5265F61C6120C6A
:100AC00051E5254EFEE5264F61C6120C51E5256E17
:100AD000FEE5266F61C6120C90B5260AEEB5250616
:100AE0007E007F0180047E007F0061F2120C906521
:100AF000267003EE65257E0060047F0180027F0082
:100B000061F2120C5C40047F0180027F0061F212EE
:100B10000C7640047F0180027F0061F2120C765057
:100B2000047F0180027F0061F2120C5C50047F019F
:100B300080027F0061F2121D8FEF24FFFFEE34FF71
:100B4000FE61F2121D8FEF2401FFE43EFE61F212FE
:100B50001D8FEFF4FFEEF4FE61F2121D8F8E258FD4
:100B600026AF26AE251207DAAF26AE2561F2121D9A
:100B70008F812578E9E625E02466F8E6F52508E684
:100B8000F52678E9E625E024641217E478E9E625FD
:100B9000E02466F8A60608A60778E9E625E02464BE
:100BA000F8A62508A6268125121D8F121D6981250C
:100BB000121DB2803D121DB2806B78E8E625E0245C
:100BC00046F8E6FE08E6FF8029120C9CE0FF7E0056
:100BD0008020121D8F7525008F26AF26C007120CAE
:100BE0009CD0E0F0803F121D8FEF2480FF12139203
:100BF0007E001207DA802E121D8F7525008F2612B7
:100C00001D8FEF2480FFAD261211FB80187BFF7A29
:100C100004790F75350085273678EAE6F53708E65A
:0F0C2000F538120D1D78EB06E618700106010A73
:100C2F0022121D8F8E258F26121D8F22121D8F8E41
:100C3F00258F26121D8F22121D8F8E258F26121D96
:100C4F008F22121D8F8E258F26121D8F22121D8F20
:100C5F008E258F26121D8FD3EF9526E5256480F8FC
:100C6F00EE6480987E0022121D8F8E258F26121D16
:100C7F008FC3EF9526E5256480F8EE6480987E009B
:100C8F0022121D8F8E258F26121D8FEF22121D8F80
:100C9F00E5242FF582E5233EF58322121D8F121DC9
:0C0CAF006922121D8F8E358F367BFF22CC
:101DD50078EAE6FC08E62400F58274003CF583EF1A
:101DE500F006E6187001061217D17846121771220F
:101C24008E2B8F2CE50D60097BFF7A047919121E27
:101C340048C3E52B648094804016D3E52C94FFE5DB
:101C44002B6480948050097F33121DD5AF2C8012F1
:101C54007F34121DD5852B0B852C0CAF0B121DD593
:061C6400AF0C121DD52299
:091EDC007BFF7A04791D020D1D43
:101CE800E4FFFE74882EF8E6FDBD08028006EF705A
:101CF8000BBD200874882EF8E4F68012EF7007BD3B
:101D080027047F018008BF0105BD2702E4FF0EBE3E
:021D180050D1A8
:011D1A0022A6
:101B080085082B85092C850A2D1217EB12058C7078
:101B1800309000D7EB7008E965827003EA6583703E
:101B2800131217F2750800750900750A887B007A88
:101B3800007900227401252DF52DE4352CF52C8033
:101B4800C81217EB121E5DE52D2FF9E52C3E852BEB
:101B580008F509890AE50D6012852B35852C36852F
:0E1B68002D377BFF7A047921120D1D1217EB29
:011B7600224C
:0A1529008C2E8D2F8B2B8A2C892D20
:10153300753300753401753505753610121E5D8FD0
:1015430032E52F64FE7003E52EF4600E1532AF32E0
:1015530012179C643A60037F7F22D3E53264809440
:101563008340037F7F22E4F530C3E5326480F8E5EE
:10157300306480985055AF3012179CFF121EA88F0D
:1015830031121EB9500874D02531F5318012AF31B4
:10159300121E2D5008E53124C9F53180037F7F22C7
:1015A300AF31EF3395E0FEAC35AD361205D2EF2502
:1015B30034F534EE3533F533AE35AF367C007D2468
:1015C3001205E48E358F360530809EE4F530E53024
:1015D30025E02469F9E7B5341219E7B5330DE52F92
:1015E30064FE7003E52EF4602F8018E53025E024B7
:1015F30069F9E71947701AE53025E02468F8A6333E
:1016030008A634E53025E02448F8A62E08A62F8046
:0A161300070530E530B410B6AF3023
:01161D0022AA
:10101700121CE81211E4700221E1121C6A8F25E507
:10102700256404600CE52564056006E52564077002
:101037004CE50D60097BFF7A0279E4121E48121114
:10104700E470087BFF7A047927802D1217787DFEDC
:101057007CFF1215298F23E523647F6015AF2512C6
:101067001DD57FFF121DD5AF23121DD5E50D60A33A
:1010770021CE7BFF7A047932121E4821E1E52564EF
:101087007F6011AF25121DD5E50D60877BFF7A02C2
:1010970079E421DC12177812058C642770377F0DED
:1010A700121DD5E4F523852382758300A3121778D3
:1010B7001205A5FF6427600AEF6007121DD50523F7
:1010C70080E4E4FF121DD5E50D7002011A7BFF7A5B
:1010D70004793921DC12177812058C64307052902C
:1010E70000011205A5FF121EA8EF64587043F529E9
:1010F700F52A7523021217781211F150321217557B
:10110700121D1B8F24E524B4FF0B7BFF7A04793D66
:10111700121E4821ADE52AC4F8540FC868FFE52917
:10112700C454F048F529EF4524F52A052380C62144
:10113700AD12177812058CFF642D6005121EB95089
:101147006E12177812058CB42D057524018003E4FF
:10115700F524E4F529F52A8524231217781211F1CD
:101167005034121755121EB9400B7BFF7A0479448D
:10117700121E488021121755121D1BEFFB7A00AE75
:1011870029AF2A7C007D0A1205D2EF2BF52AEA3E09
:10119700F529052380C4E524B4010BC3E4952AF59A
:1011A7002AE49529F529AF2AAE29121C24011A121F
:1011B700177878EAE6FC08E6FD121529EF647F60E8
:1011C7000EE50D7002011A7BFF7A04792E80067BEB
:0D11D700FF7A04794B121E48011A021968B4
:1011E400121B088B268A278928E94A4B22121E5D86
:0711F400C3E5239FE49E22E6
:1018000075227F121DF5D299121E7275FFDE75FFCB
:10181000ADD2AF121E8501A7121EDCE522C3940DC6
:10182000503C12177F121E5DD3EF9450EE9400408F
:101830000B7BFF7A047952121E48052212177F781B
:10184000887C007D001207537535007536007537AA
:10185000887BFF7A00790E120D1D0522800D7B001A
:101860007A0079887D507C001218C67888E670036B
:10187000121EDC7B007A007988121E5DEF64014E37
:10188000703F7888E6FF121EA8EF24B4602E24F97A
:10189000601C14601E24FA600E24027024E4FF12FF
:1018A0001CAE12080001187F01121CAE011812169E
:1018B0001E0118C37401950DF50D0118E4F5220100
:0618C000181210170118B8
:1011FB00EFC394405009EF75F003A490121273756E
:10120B00F003A49012D2738D80228D81228D8222C5
:10121B008D83228D84228D85228D86228D87228D32
:10122B0088228D89228D8A228D8B228D8C228D8D09
:10123B00228D8E228D8F228D90228D91228D922246
:10124B008D93228D94228D95228D96228D97228DB2
:10125B0098228D99228D9A228D9B228D9C228D9D79
:10126B00228D9E228D9F228DA0228DA1228DA222C6
:10127B008DA3228DA4228DA5228DA6228DA7228D32
:10128B00A8228DA9228DAA228DAB228DAC228DADE9
:10129B00228DAE228DAF228DB0228DB1228DB22246
:1012AB008DB3228DB4228DB5228DB6228DB7228DB2
:1012BB00B8228DB9228DBA228DBB228DBC228DBD59
:1012CB00228DBE228DBF228DC0228DC1228DC222C6
:0312DB008DC3229E
:1012DE008DC4228DC5228DC6228DC7228DC8228D2A
:1012EE00C9228DCA228DCB228DCC228DCD228DCEC0
:1012FE00228DCF228DD0228DD1228DD2228DD3223E
:10130E008DD4228DD5228DD6228DD7228DD8228DA9
:10131E00D9228DDA228DDB228DDC228DDD228DDE2F
:10132E00228DDF228DE0228DE1228DE2228DE322BD
:10133E008DE4228DE5228DE6228DE7228DE8228D29
:10134E00E9228DEA228DEB228DEC228DED228DEE9F
:10135E00228DEF228DF0228DF1228DF2228DF3223D
:10136E008DF4228DF5228DF6228DF7228DF8228DA9
:10137E00F9228DFA228DFB228DFC228DFD228DFE0F
:04138E00228DFF228B
:10139200EFC394405009EF75F003A49013A973753D
:1013A200F003A490146973AF8022AF8122AF82222E
:1013B200AF8322AF8422AF8522AF8622AF8722AFCE
:1013C2008822AF8922AF8A22AF8B22AF8C22AF8DC7
:1013D20022AF8E22AF8F22AF9022AF9122AF922204
:1013E200AF9322AF9422AF9522AF9622AF9722AF4E
:1013F2009822AF9922AF9A22AF9B22AF9C22AF9D37
:1014020022AF9E22AF9F22AFA022AFA122AFA22283
:10141200AFA322AFA422AFA522AFA622AFA722AFCD
:10142200A822AFA922AFAA22AFAB22AFAC22AFADA6
:1014320022AFAE22AFAF22AFB022AFB122AFB22203
:10144200AFB322AFB422AFB522AFB622AFB722AF4D
:10145200B822AFB922AFBA22AFBB22AFBC22AFBD16
:1014620022AFBE22AFBF22AFC022AFC122AFC22283
:03147200AFC322E3
:10147500AFC422AFC522AFC622AFC722AFC822AFC5
:10148500C922AFCA22AFCB22AFCC22AFCD22AFCE7D
:1014950022AFCF22AFD022AFD122AFD222AFD322FB
:1014A500AFD422AFD522AFD622AFD722AFD822AF45
:1014B500D922AFDA22AFDB22AFDC22AFDD22AFDEED
:1014C50022AFDF22AFE022AFE122AFE222AFE3227B
:1014D500AFE422AFE522AFE622AFE722AFE822AFC5
:1014E500E922AFEA22AFEB22AFEC22AFED22AFEE5D
:1014F50022AFEF22AFF022AFF122AFF222AFF322FB
:10150500AFF422AFF522AFF622AFF722AFF822AF44
:10151500F922AFFA22AFFB22AFFC22AFFD22AFFECC
:0415250022AFFF22D0
:101A1300021800E493A3F8E493A34003F68001F2D1
:101A230008DFF48029E493A3F85407240CC8C333D4
:101A3300C4540F4420C8834004F456800146F6DFA3
:101A4300E4800B0102040810204080901EE5E47E30
:101A5300019360BCA3FF543F30E509541FFEE49398
:101A6300A360010ECF54C025E060A840B8E493A35F
:101A7300FAE493A3F8E493A3C8C582C8CAC583CA8A
:101A8300F0A3C8C582C8CAC583CADFE9DEE780BE42
:011EED0000F4
:10058C00BB010689828A83E0225002E722BBFE026D
:09059C00E32289828A83E49322A0
:1005A500BB010CE58229F582E5833AF583E022500B
:1005B50006E92582F8E622BBFE06E92582F8E22255
:0D05C500E58229F582E5833AF583E493226F
:1005D200EF8DF0A4A8F0CF8CF0A428CE8DF0A42E3D
:0205E200FE22F7
:1005E400BC000BBE0029EF8DF084FFADF022E4CCFB
:1005F400F875F008EF2FFFEE33FEEC33FCEE9DECC4
:10060400984005FCEE9DFE0FD5F0E9E4CEFD22ED09
:10061400F8F5F0EE8420D21CFEADF075F008EF2F53
:10062400FFED33FD4007985006D5F0F222C398FD44
:050634000FD5F0EA22E1
:10063900C2D5EC30E709B2D5E4C39DFDE49CFCEEDC
:1006490030E715B2D5E4C39FFFE49EFE1205E4C36B
:10065900E49DFDE49CFC80031205E430D507C3E466
:060669009FFFE49EFE224B
:0C066F00A42582F582E5F03583F5832296
:0C067B00E493FB740193FA740293F922DB
:100CBB00E5412435F8E605412278323007027835D4
:100CCB00E475F0011207A402058C2000EB7F2ED2F5
:100CDB00008018EF540F2490D43440D4FF30040B11
:100CEB00EF24BFB41A0050032461FFE542600215E4
:100CFB00420545E5457002054430070D7832E47531
:100D0B00F0011207A4EF020770021D427403D20711
:100D1B008003E4C207F5418B328A338934E4F54210
:100D2B00F544F545E54260077F20120CF680F5751A
:100D3B0043FFC201C200C202C203C205C206C208FF
:100D4B00120CC4FF700D3007057F00120D07AF4565
:100D5B00AE4422B4255FC2D5C204120CC4FF24D00A
:100D6B00B40A00501A75F00A784230D50508B6FF60
:100D7B000106C6A426F620D5047002D20380D9241E
:100D8B00CFB41A00EF5004C2E5D204020F07D20110
:100D9B0080C6D20080C0D20280BCD2D580BAD20528
:100DAB0080B47F20120CF62002077401B54200407C
:100DBB00F1120CBBFF120CF6020D2FD208D20680DB
:100DCB0095120CBBFB120CBBFA120CBBF94A4B7005
:100DDB000679D87A0F7BFF20022EE542602A7E002F
:100DEB008E827583001205A560060EEE654370F0CA
:100DFB00C2D5EBC0E0EAC0E0E9C0E0EE120F4ED086
:100E0B00E0F9D0E0FAD0E0FB12058CFF60AAEBC052
:100E1B00E0EAC0E0E9C0E0120CF6D0E02401F9D022
:100E2B00E03400FAD0E0FBE5430460DCD543D98025
:100E3B00877BFF7A0F794AD202809C7910800279E6
:100E4B0008C206C2088008D2D5790A8004790AC282
:100E5B00D5E543047002F543E4FAFDFEFF120CBB2B
:100E6B00FC7B08200113120CBBFD7B1030000A1217
:100E7B000CBBFE120CBBFF7B20EC3382D592D55002
:100E8B0013C3E43000069FFFE49EFEE42001039DA4
:100E9B00FDE49CFCE4CBF8C201EC700CCFCECDCCC6
:100EAB00E824F8F870F38017C3EF33FFEE33FEED51
:100EBB0033FDEC33FCEB33FB994002FB0FD8E9EB32
:100ECB00300105F8D0E0C448B201C0E00AEC4D4E49
:100EDB004F78207B0070C2EAB5430040BCC0E012E3
:100EEB000F50D0F0D0E0200104C4C0E0C4B201C068
:100EFB00F0120CDFD0F0D5F0EB020D2F1207B40D72
:100F0B00CC530E46580D9D4C0D99420E4A4F0E5226
:0F0F1B00440E52490DB2430E58550E3C460E3C43
:100F2A00450E3C470FF8500DA12D0DA52E0DC82BCF
:100F3A000DA9230DC6200FE12A0D614800000DC03E
:100F4A003F3F3F00790AA2D5200314300509B910A2
:100F5A00020404B9080104A2D520060250010420A3
:100F6A0002689202B542005034C0E07F2030031973
:100F7A007F30A20272067205500F120FA7C202C278
:100F8A0006C205C2087F30800F300503E9C0E012AF
:100F9A000CF6300503D0E0F9D0E0B542CC300517A5
:100FAA007F30B9100C120CF67F583004077F788016
:100FBA0003B90803120CF63002057F2D020CF67FE6
:100FCA00202008F87F2B2006F322920280CF286E79
:100FDA00756C6C2900D201120CBB3001F8C2017881
:100FEA004230D50108F6020D612D50434958120CC2
:100FFA00BB2403B405004001E4900FF393120CE7FD
:0D100A00743A120CE7D203754204020E4640
:101E970010090B121ED2BF0D027F0A021D42AF1698
:011EA7002218
:101D1B00EF7E0024D0B40A00401B24F9B40A004023
:101D2B0011B41000400F24E0B40A004005B41000B9
:071D3B00400374FFFEFF22CC
:101E2D00EFC394414005EF945B400BEFC3946140C9
:0B1E3D0008EF947B5003D38001C32208
:0F1EB900EFC394304007EF943A50028001C322E8
:101EA800EFC39461400AEF947B5005EF24E0FF22D2
:011EB8002207
:1018C6008B238A2489258C268D27E4F528F529E59E
:1018D6002724FFFFE52634FFFEC3E5299FEE64803B
:1018E600F8E5286480985069121E97AB23AA24A9AC
:1018F60025852982852883EF120782FFBF0A028089
:1019060050AB23AA24A9258529828528831205A5FB
:10191600B4081AE52945286008E529152970021535
:10192600287F20121D427F08121D4280A2AB23AAE7
:1019360024A9258529828528831205A5FF641160BF
:101946008EEF641360890529E5297083052802183E
:10195600D5AB23AA24A925852982852883E41207E5
:021966008222DB
:10068700E709F60870FA8046E709F20870FA803E33
:1006970088828C83E709F0A370FA807EE309F60865
:1006A70070FA8076E309F20870FA806E88828C838C
:1006B700E309F0A370FA806289828A83E0A3F608CF
:1006C70070FA805689828A83E0A3F20870FA804A1A
:1006D70080D280FA80C680D4806580F28031801015
:1006E70080A680EA809A80A880DA80E280CA80317A
:1006F70089828A83ECFAE493A3C8C582C8CCC583F0
:10070700CCF0A3C8C582C8CCC583CC70E9800D895D
:10071700828A83E493A3F60870F9ECFAA9F0EDFB5B
:100727002289828A83ECFAE0A3C8C582C8CCC58334
:10073700CCF0A3C8C582C8CCC583CC70EA80DD895C
:10074700828A83E493A3F20870F980CE88F0ED24BF
:1007570002B4040050C4F582EB2402B4040050BA7A
:0907670023234582239006D77379
:101E5D00E4FFFE12058C600C0FEF70010E09E970A6
:051E6D00F20A80EF22E3
:10077000BB010689828A83F0225002F722BBFE0168
:02078000F32262
:10078200F8BB010DE58229F582E5833AF583E8F0AD
:10079200225006E92582C8F622BBFE05E92582C859
:0207A200F22241
:1007A400FAE6FB0808E6F925F0F618E6CA3AF62256
:1007B400D083D082F8E4937012740193700DA3A3D4
:1007C40093F8740193F5828883E4737402936860E8
:0607D400EFA3A3A380DFE8
:101D4200EFB40A07740D121D4D740A309811A89948
:101D5200B8130CC2983098FDA899C298B811F63001
:071D620099FDC299F59922D9
:0A1ED2003098FDAF99C2987E0022FF
:00000001FF
